{
    "contractName": "test",
    "abi": [
        {
            "inputs": [],
            "stateMutability": "nonpayable",
            "type": "constructor"
        },
        {
            "anonymous": false,
            "inputs": [
                {
                    "indexed": false,
                    "internalType": "uint256",
                    "name": "_count",
                    "type": "uint256"
                }
            ],
            "name": "countIncremented",
            "type": "event"
        },
        {
            "inputs": [],
            "name": "count",
            "outputs": [
                {
                    "internalType": "uint256",
                    "name": "",
                    "type": "uint256"
                }
            ],
            "stateMutability": "view",
            "type": "function"
        },
        {
            "inputs": [],
            "name": "getCount",
            "outputs": [
                {
                    "internalType": "uint256",
                    "name": "",
                    "type": "uint256"
                }
            ],
            "stateMutability": "view",
            "type": "function"
        },
        {
            "inputs": [],
            "name": "incrementCount",
            "outputs": [
                {
                    "internalType": "uint256",
                    "name": "",
                    "type": "uint256"
                }
            ],
            "stateMutability": "nonpayable",
            "type": "function"
        }
    ],
    "bytecode": "608060405234801561001057600080fd5b50600080546001600160a01b0319163317905560ee806100316000396000f3fe6080604052348015600f57600080fd5b5060043610603c5760003560e01c806306661abd146041578063a87d942c146059578063e5071b8e14605f575b600080fd5b60476065565b60408051918252519081900360200190f35b6047606b565b60476071565b60015481565b60015490565b6001805481019081905560408051918252516000917fc079e126e71a56b7313d24c868426a974e7897b6413b52d22c62a7a8198d281f919081900360200190a1506001549056fea2646970667358221220a7a49311f15e8fdc7b14041f370e7ba7f0c5d4671a408beada983f3db767c8b364736f6c63430006070033",
    "sourcePath": "d:/GitHub/ethers-testing/test.sol",
    "compiler": {
        "name": "solc",
        "version": "0.6.7+commit.b8d736ae"
    },
    "functionHashes": {
        "count()": "06661abd",
        "getCount()": "a87d942c",
        "incrementCount()": "e5071b8e"
    },
    "gasEstimates": {
        "creation": {
            "codeDepositCost": "47600",
            "executionCost": "20934",
            "totalCost": "68534"
        },
        "external": {
            "count()": "976",
            "getCount()": "998",
            "incrementCount()": "22903"
        }
    }
}