{
    "contractName": "test",
    "abi": [
        {
            "inputs": [],
            "stateMutability": "nonpayable",
            "type": "constructor"
        },
        {
            "anonymous": false,
            "inputs": [
                {
                    "indexed": false,
                    "internalType": "uint256",
                    "name": "_count",
                    "type": "uint256"
                },
                {
                    "indexed": false,
                    "internalType": "address",
                    "name": "sender",
                    "type": "address"
                }
            ],
            "name": "countIncremented",
            "type": "event"
        },
        {
            "inputs": [],
            "name": "count",
            "outputs": [
                {
                    "internalType": "uint256",
                    "name": "",
                    "type": "uint256"
                }
            ],
            "stateMutability": "view",
            "type": "function"
        },
        {
            "inputs": [],
            "name": "getCount",
            "outputs": [
                {
                    "internalType": "uint256",
                    "name": "",
                    "type": "uint256"
                }
            ],
            "stateMutability": "view",
            "type": "function"
        },
        {
            "inputs": [],
            "name": "incrementCount",
            "outputs": [
                {
                    "internalType": "uint256",
                    "name": "",
                    "type": "uint256"
                }
            ],
            "stateMutability": "nonpayable",
            "type": "function"
        }
    ],
    "bytecode": "608060405234801561001057600080fd5b50600080546001600160a01b0319163317905560f3806100316000396000f3fe6080604052348015600f57600080fd5b5060043610603c5760003560e01c806306661abd146041578063a87d942c146059578063e5071b8e14605f575b600080fd5b60476065565b60408051918252519081900360200190f35b6047606b565b60476071565b60015481565b60015490565b600180548101908190556040805191825233602083015280516000927f0e7151b1c804f5a663ac84c1c255e82fd4162b279a7fb427e1987066f4cb611792908290030190a1506001549056fea26469706673582212202df85f407c2869561c77ab82e74d6cbe1ba61562a6cd64765f46184b5d8380d564736f6c63430006070033",
    "sourcePath": "d:/GitHub/ethers-testing/scripts/test.sol",
    "compiler": {
        "name": "solc",
        "version": "0.6.7+commit.b8d736ae"
    },
    "functionHashes": {
        "count()": "06661abd",
        "getCount()": "a87d942c",
        "incrementCount()": "e5071b8e"
    },
    "gasEstimates": {
        "creation": {
            "codeDepositCost": "48600",
            "executionCost": "20934",
            "totalCost": "69534"
        },
        "external": {
            "count()": "976",
            "getCount()": "998",
            "incrementCount()": "23176"
        }
    }
}